:100000000C94EF040C94FE200C9436050C943605E9
:100010000C9436050C9436050C9436050C94360574
:100020000C9436050C9436050C946D1D0C94291D0A
:100030000C9429200C9436050C9436050C94360546
:100040000C9436050C9436050C9436050C94360544
:100050000C9436050C9405200C9436050C9436054A
:100060000C9436050C9436050C9436050C94360524
:100070000C9436050C9436050C9436050C94360514
:100080000C9436050C9436050C9436050C94360504
:100090000C9436050C9436050C9436050C943605F4
:1000A0000C9436050C9436050C943605000400407B
:1000B00032303236203230323600002000403235C5
:1000C0003030203235303000110000400102E101B3
:1000D00001520103E10000000000000000000000E8
:1000E0000000030000400102E10101500103E100B2
:1000F00000000000000000000000000005000040BB
:100100000102E10101510103E100000000000000D3
:10011000000000000000090000400102E101014F61
:100120000103E100000000000000000000000000EA
:100130001000000065000000000000200000000129
:10014000012A00000000010000006800000000001B
:100150000002000000720000000000000400000027
:1001600061000000000000080000006900000000BD
:1001700000000004000074000000000000000800FF
:10018000006B000000000000001000006F00000085
:1001900000000000200000750000000000000000CA
:1001A000100073000000000000000020006E00003E
:1001B00000000000000040002D00000000000000D2
:1001C00000800079000000000000000000402000D6
:1001D00000000000000000000201012800000000F3
:1001E0000300000070000000000000000C00006D23
:1001F0000000000000000000300077000000000058
:100200000010008000650000000000002000800059
:100210002E010128000000010080006200000000A3
:100220000000020080002C0000000000000400809C
:10023000006100000000000008008000690000006C
:1002400000000000048000640000000000000008BE
:10025000800067000000000000001080006F0000B8
:100260000000000000208000750000000000000079
:100270000090007A0000000000000000A0006E6EF8
:1002800000000000000000C0007800000000000036
:1002900003008000660000000000000000B000764F
:1002A00000000000000010000040010152000000AA
:1002B00000200000402F000000000000010000406E
:1002C000000000000000000200004001015000009A
:1002D000000004000040010151000000000800007F
:1002E0004001014F000000000008004021010128EA
:1002F000000000001000403F010128000000000045
:1003000010400102E0730103E0000020400102E020
:10031000780103E000000000000000000000000081
:1003200000000000000000007E0F00D4FFFFFFC7A8
:100330000000007800000000000000002A2B2800C8
:100340000000000000000000000000000000002984
:10035000000000002C1E3420212224342627252EC4
:10036000362D3738271E1F202122232425263333FC
:10037000362E37381F0405060708090A0B0C0D0E28
:100380000F101112131415161718191A1B1C1D2FF4
:100390003130232D350405060708090A0B0C0D0E14
:1003A0000F101112131415161718191A1B1C1D2FD4
:1003B0003130354C010433307C0020000000100047
:1003C000004002000040040000400800004011000E
:1003D00000400300004005000040090000401400F8
:1003E0001A00080015001700040016000700090095
:1003F0000A001D001B00060019000500E300095D4E
:100400002961000000001C0018000C0012001300FD
:100410000B000D000E000F0033001100100036001D
:10042000370038002C620A5D2A64000000001F5D5E
:100430001C5D125D085D0000265D1D5D135D095D9C
:100440000000215D1E5D145D0A5D0C5D155D0B5D98
:100450000D5D000000000000085D125D1C5D1F5D69
:100460000000095D135D1D5D265D0C5D0A5D145D78
:100470001E5D215D0D5D0B5D155D000000001E0021
:100480001F002000210022002B00010001000100BC
:100490000100E0003500E300E2004C000100010033
:1004A0000100000000002300240025002600270092
:1004B0005000510052004F0028002A004B004E000F
:1004C00031003400010001000100000000001E02A4
:1004D0001F022002210222022B002D022E023102D5
:1004E000350239002D002E003100350001000100D9
:1004F0000100000000002302240225022602270238
:100500003302340237022F02300233003400360245
:100510002F00300001000100010000000000000079
:1005200000000000000000000000000000000000CB
:1005300000000000000000000000000000000000BB
:1005400000000000000000000000000000000000AB
:10055000000000000000000000000000000000009B
:1008D00000000000000000000000000000003A00DE
:1008E0003B003C003D003E0044004500010001008B
:1008F0000100005C01000100010001000100010095
:100900000100000000003F004000410042004300A1
:1009100001000100010001000100AC00AB00AA00D1
:10092000A900AE0001000100010000000000050167
:100930000906A101050719E029E715002501950819
:10094000750181029501750881010507190029FFCC
:10095000150026FF00950675088100050819012974
:1009600005950575019102950175039101C0090274
:100970002200010100A0FA090400000103010100A6
:100980000921110100012240000705810308000A26
:100990001201100100000008EDFE393901000102CA
:1009A000030104033000000010034D0069006E00D5
:1009B000690041007800650000001E0345004E00FC
:1009C00044004F0020004B0061007400730075006C
:1009D0006800690072006F0000000403090411241C
:1009E0001FBECFEFDAE0DEBFCDBF04B603FE27C0E7
:1009F0008091AE029091AF02A091B002B091B1028D
:100A00008730904BA740B04BD1F41092AE021092B9
:100A1000AF021092B0021092B10214BE84B7877F69
:100A200084BF0FB6F894A895809160008861809388
:100A30006000109260000FBEE0E0F8E3099522E04C
:100A4000A8ECB1E001C01D92AE3AB207E1F711E0A7
:100A5000A0E0B1E0E4E7F4E402C005900D92A83C08
:100A6000B107D9F70E94471E0C9414220C94000081
:100A7000982F9093E900891779F05091EC0020911C
:100A8000ED004091F00021FD0AC09F5F973089F78B
:100A90008093E90081E00895562F40E022E03091F4
:100AA000EB003E7F3093EB003091ED003D7F3093C3
:100AB000ED003091EB0031603093EB005093EC008F
:100AC0002093ED004093F0002091EE0027FDDDCF54
:100AD00080E00895E8EDF0E080818E7F80831092C1
:100AE000E2001092DA001092E100A0EEB0E08C91EA
:100AF00081608C9380818F77808319BCA7EDB0E0F3
:100B00008C918E7F8C9380818F7E80831092910256
:100B10000895CF92DF92EF92FF920F931F93CF939E
:100B2000DF93C8EDD0E088818F7E8883E7EDF0E029
:100B300080818160808384E082BF81E08093910224
:100B400088818E7F888302EE10E0F8011082109277
:100B5000DA0081EEC82ED12CF601108288818F77C1
:100B6000888388818068888388818F7D888319BC89
:100B700010929E0210929F0210929D0210929C026F
:100B800090EEE92EF12CF70180818B7F80838881A4
:100B90008160888360E080E00E943805F6018081F2
:100BA0008E7F8083F801808181608083808188606E
:100BB0008083F70180818E7F808388818061888334
:100BC000DF91CF911F910F91FF90EF90DF90CF9029
:100BD00008952091E4003091E50095E6A901209167
:100BE000EC00822F817020FF06C08091E80080FF1A
:100BF00006C080E008952091E80022FD1AC080918F
:100C00009E02882389F0853089F08091EB0085FD74
:100C10000FC02091E4003091E50042175307F9F22C
:100C20009150E1F684E0089582E0089583E008950C
:100C300081E00895EF92FF920F931F93CF937C0171
:100C40000E94E905C82F811119C008E010E08091C9
:100C5000E80085FD0BC08091E8008E778093E80066
:100C60000E94E905882399F3C82F08C0F7018191F4
:100C70007F018093F1000150110949F78C2FCF912A
:100C80001F910F91FF90EF9008958091A00287FF30
:100C900013C08091E80082FF06C08091E8008B7746
:100CA0008093E80004C080919E028111F2CF0895E4
:100CB00080919E028823D9F38091E80080FFF8CFCD
:100CC0008091E8008E77ECCFFC018091A602909194
:100CD000A70286179707A0F06115710529F4909176
:100CE000E8009E779093E80090E06115710551F45B
:100CF000911108C08091E80082FF34C080E008951F
:100D0000BC01F2CF80919E028823C1F18530C1F1F0
:100D10008091E80083FD30C08091E80082FDEACF39
:100D20008091E80080FFE1CF8091F3002091F200F4
:100D3000382F6115710519F02830310558F091E010
:100D40002830310509F090E02091E8002E772093BB
:100D5000E800CBCF81918093F100615071092F5F42
:100D60003F4FE7CF80919E02882341F0853041F0CC
:100D70008091E80083FFBECF81E0089582E008956E
:100D800083E0089508950895089580919302089549
:100D90002FB7F89480915F0290916002A091610258
:100DA000B09162022FBF089580915A028111109272
:100DB0005A0208958091590290915802892B90917E
:100DC0005702892B8093C80190915A02992391F080
:100DD000892B8093C80120E08AEC91E0FC013191DD
:100DE000CF0131112F5FF1E0803D9F07B9F721114D
:100DF0000E94D406E0917C02F0917D02309731F0A0
:100E00000280F381E02D88EC91E009940895EAECEA
:100E1000F1E09191891303C0DF0111971C9291E0D9
:100E2000E03DF907B1F70895AAECB1E0EFEF90E0EB
:100E30002D91821751F0EF3F19F4211101C0E92FD4
:100E40009F5F9630A9F7EF3F09F408950E2E000C2E
:100E5000FF0BE853FE4F82830895E92FEE0FEE0F4C
:100E60009E0F890F982F977086958695869525E019
:100E7000829FF0011124E35CFD4F50E040E080E0F0
:100E8000219130E0092E02C0369527950A94E2F7A9
:100E900021703327042E01C0220F0A94EAF7822B17
:100EA0004F5F5F4F4530510559F70895E92FEE0F19
:100EB000EE0F9E0F890F982F977041E001C0440FED
:100EC0009A95EAF786958695869595E0899FF00133
:100ED0001124E35CFD4F30E020E070E05191DF0130
:100EE0001197CB01022E02C0969587950A94E2F7DE
:100EF000817081958527842385278C932F5F3F4FB1
:100F00002530310559F708956093A8027093A9021E
:100F10008093AA029093AB0210925802109257024B
:100F20000C94DA060F931F936091A8027091A902A6
:100F30008091AA029091AB028B019C010C70112749
:100F4000222733270C3011052105310529F4816052
:100F50001F910F910C9484078E7FFACF0F931F93EC
:100F600041E050E060E070E004C0440F551F661F90
:100F7000771F8A95D2F7CB01BA016095709580955D
:100F800090950091A8021091A9022091AA02309197
:100F9000AB0260237123822393231F910F910C9442
:100FA0008407909156028095892380935602282FBA
:100FB000277071F4282F082E000C330B921713069C
:100FC00039F08595859585950E94AE071092560259
:100FD00008950F931F9341E050E060E070E004C07B
:100FE000440F551F661F771F8A95D2F78091A8027C
:100FF0009091A902A091AA02B091AB028A019B0133
:10100000082B192B2A2B3B2BC901B8011F910F91DB
:101010000C94840760935B0270935C0280935D0282
:1010200090935E0210925802109257020C94DA06C6
:1010300020913C0290910B0256E0291302C080E0FF
:10104000089530E0529FF001539FF00D1124E45FAA
:10105000FD4F7181761306C07081781303C07281D1
:10106000741304C02F5F3F4F2770E7CF81E00895CE
:1010700080913C0290910B02981301C008958F5FFC
:101080008770FACF882341F0809590915802892388
:10109000809358020C94DA060895882339F09091D1
:1010A0005802982B909358020C94DA0608958823DE
:1010B00041F08095909159028923809359020C94B4
:1010C000DA060895882339F090915902982B90936D
:1010D00059020C94DA060895E0917C02F0917D02A9
:1010E000309721F00190F081E02D099480E008957F
:1010F000882309F474C0823871F40E946C0881FF5F
:101100006EC089E30E9414070E94DA0689E30E94F8
:1011100007070C94DA06833859F40E946C0880FFA4
:101120005EC083E50E9414070E94DA0683E5EFCFD4
:10113000843859F40E946C0882FF51C087E40E94F1
:1011400014070E94DA0687E4E2CF9CEF980F913AE9
:10115000F0F290E2980F983088F4877021E030E048
:10116000A90102C0440F551F8A95E2F7CA01809574
:1011700090915902892380935902CBCF9BE5980F18
:101180009330B0F48091010290910202892B39F1E1
:101190001092020210920102E0917C02F0917D0215
:1011A0003097E9F00680F781E02D90E080E0099427
:1011B000885A8731A0F48091030290910402892B10
:1011C00071F01092040210920302E0917C02F091FF
:1011D0007D02309721F00084F185E02DE6CF08955F
:1011E00090917A0292FF06C0282F28712830F9F4D6
:1011F000877F846093FF06C0282F28712831F1F47F
:10120000877E846120917B0220FF06C0382F3871D1
:101210003830D9F4877F816021FF06C0282F2871DC
:101220002831D1F4877E816194FD877E0895282F2F
:1012300024712430F9F68B7F8860DCCF282F24714D
:10124000243101F78B7E8861DDCF382F3171313049
:1012500019F78E7F8860E0CF282F2171213121F787
:101260008E7E8861E1CFCF93DF93972F70E025E0EA
:10127000929F600D711D1124FB0138E2839FE00DE8
:10128000F11D1124EE0FFF1FE252FC4FC591D491C6
:10129000CE01C238D10591F1C0F5C133D10509F4B1
:1012A00094C028F5C932D10509F488C0CA32D105E5
:1012B00009F492C0C11523E5D20708F0ADC0C115ED
:1012C00032E5D30708F00FC1C11520E2D20708F0BC
:1012D00090C0C11531E0D30730F5C53AD10508F00B
:1012E00082C0C430D105F8F42197E9F040C0C5337D
:1012F000D10509F45CC0C933D105E1F620917A0229
:10130000237089F080EE90E00EC0C33ED10591F1CC
:1013100068F4C03ED105F9F0C23ED10559F62091DE
:101320007A0222FD20C0DF91CF910895C63ED105FB
:1013300061F1C73ED10581F1C43ED10509F0BACFB4
:1013400020917B0221FFEFCF80917A0284FD0FC0B4
:1013500087EE90E0E8CF20917A0220FDF3C0309133
:101360007B0230FFE0CF83EE90E024FFDCCF90E003
:1013700080E0D9CF20917A0222FDE7C030917B0234
:1013800030FDC0CF24FFCFCFF2CF20917A0223FFD0
:10139000CACF24FDECCFDCCF20917A0223FDD8C048
:1013A00030917B0231FFEECF84EE90E0BCCF2091F4
:1013B0007A0225FFB8CF89E290E0B5CF20917A027A
:1013C00025FFB1CF85E390E0AECF20917A0226FFD2
:1013D000AACF8AE290E0A7CF20917A0226FFA3CF7E
:1013E00081E390E0A0CFC05ED109289708F49BCF9D
:1013F000BECFC11581E5D80708F070C0C11590E5D2
:10140000D90708F04FC0C11520E4D20708F4AFCFC8
:10141000CE019F70906A87CFC11536E5D307F0F4EF
:10142000C11585E5D80708F076C0C11594E5D90740
:1014300008F06CC09E012370332781E090E002C069
:10144000880F991F2A95E2F7C695C69530E2C39F8B
:10145000E00111248C2B9D2B9A6865CFC1152AE5DC
:10146000D20778F4C11539E5D30708F05EC0C1157D
:1014700088E5D80708F47BCF9C2F8827806F906A77
:1014800052CFCE0190568115904208F070CF8D2F2B
:101490008F710E94F00890E0982F882788279F710D
:1014A0008C2B41C09E01E4E036952795EA95E1F743
:1014B00023708C2F86958695837030E2839FC001C0
:1014C0001124922BC37021E030E002C0220F331FA1
:1014D000CA95E2F7822B932B9C6825CF9C2F8827F7
:1014E000816F906A20CF9E012370332781E090E0C6
:1014F00002C0880F991F2A95E2F7C695C69520E28B
:10150000C29FE00111248C2B9D2BE6CF9C2F8827B6
:10151000846F906A08CF8C2F0E94F00890E0982F7B
:10152000882788279F719062FECE8C2F8F700E9433
:10153000F00834E0D695C7953A95E1F7CF709C2F27
:101540009069F1CE89E390E0EECE82EE90E0EBCEB2
:1015500086EE90E0E8CEBF92CF92DF92EF92FF92BC
:101560000F931F93CF93DF938C01C090A802D0906C
:10157000A902E090AA02F090AB0280915B029091E8
:101580005C02A0915D02B0915E02C82AD92AEA2AC3
:10159000FB2ACFE1D0E0BC2ED701C6010C2E04C03F
:1015A000B695A795979587950A94D2F780FD0EC0BA
:1015B000219788F7B12C8B2DDF91CF911F910F913F
:1015C000FF90EF90DF90CF90BF900895B8018C2FDF
:1015D0000E943309019761F3EECFCF93DF93EC01C3
:1015E0000E94AB0ABE01DF91CF910C9433090E9497
:1015F000ED0A292F2F7092959F7092509E3078F4AB
:10160000E92FF0E0EA5EFD4D0C949D21803F19F03A
:1016100020F4883E20F481E00895843FE1F380E0E7
:101620000895883EC0F3813FD1F7F5CF822F86958C
:101630008695869508954091FD014423C9F09C014B
:10164000E9EEF1E02A303105A4F4D901AA0FBB1F5D
:10165000A751BE4F6D917C91718360832F5F3F4F87
:10166000329691E0ED3FF90769F7481B4093FD0181
:10167000089511821082F2CFCF9384E090E00E940F
:10168000D221C82F81E290E00E94D221982F8C2F86
:10169000CF910895CF93DF93EC0180919E02843027
:1016A00039F581E08093E9008FEF9091E800815057
:1016B00095FD06C095ED9A95F1F700008111F5CFE3
:1016C0008091E80085FF14C050E040E068E070E0E1
:1016D000CE010E941A068091E8008E778093E80080
:1016E00088E0FE01A4E9B2E001900D928A95E1F74D
:1016F000DF91CF910895CF93C82F882309F46EC04E
:101700008238C1F40E946C0881FD68C089E30E94A0
:1017100014070E94DA062FEF81EE94E021508040FA
:101720009040E1F700C0000089E30E940707CF91D5
:101730000C94DA068338A1F40E946C0880FD4EC038
:1017400083E50E9414070E94DA062FEF81EE94E0F1
:10175000215080409040E1F700C0000083E5E5CFD4
:101760008438A1F40E946C0882FD38C087E40E948E
:1017700014070E94DA062FEF81EE94E0215080409A
:101780009040E1F700C0000087E4CFCF8CEF8C0FD2
:10179000813A68F4EAECF1E08191C817C9F021E0E0
:1017A000E03DF207C9F78C2F0E941407C0CF80E2FA
:1017B0008C0F883098F4C77021E030E001C0220F10
:1017C000CA95EAF780915902822B80935902AFCFD4
:1017D0008C2F0E9407070E94DA06E5CFCF9108956B
:1017E000CF93C82F0E947B0BC93349F42FEF87EEAC
:1017F00093E0215080409040E1F700C000008C2F22
:10180000CF910C9478081F93CF93DF93C62FD42FDA
:10181000122FFC018281882399F06093FF010E94BE
:10182000C8069093DC018093DB01C77081E001C0A2
:10183000880FCA95EAF7DF91CF911F910C94620847
:101840008091FF01861340C02091DB013091DC01C3
:101850009FB7F89440915F025091600260916102DD
:10186000709162029FBF421B530B483C510560F5CB
:10187000C0E2CD0F8D17C1F090E2980F983048F478
:10188000877091E001C0990F8A95EAF7892F0E942D
:101890005708C83048F481E09D2F977001C0880F29
:1018A0009A95EAF70E946208812F0E94F00BC830D7
:1018B00090F4D77081E001C0880FDA95EAF7DF91E4
:1018C000CF911F910C945708C77081E001C0880F19
:1018D000CA95EAF7F4CFDF91CF911F9108958091D7
:1018E0006C02813079F0882349F0823039F08430FD
:1018F00069F08091DA0180935902089582EE0E9486
:101900007808F7CF8CE20E94F00BF3CF88E2FBCF90
:101910001092FE011092E5011092E6011092E7018B
:101920001092E801E9EEF1E01192119281E0ED3FB1
:10193000F807D1F71092FD0180916B020E94AE076B
:1019400081E90E94F00B8BE80C94F00B81E080930E
:10195000FE011092E5011092E6011092E70110924B
:10196000E801E9EEF1E01192119281E0ED3FF80714
:10197000D1F71092FD0180916B020E94E90780E986
:101980000E94F00B88E80C94F00BFF920F931F93CA
:10199000CF93DF93E82FF0E0EC5CFC4FF490C82F7E
:1019A000C695C695C695D0E0FE01EC5DFC4F04914E
:1019B000877010E0082E02C0159507950A94E2F78B
:1019C00001701127CC5EDC4FFE01C491D0E002C053
:1019D000D595C7958A95E2F7C170DD2701151105E8
:1019E00019F081EE0E947B0B209719F086EE0E9481
:1019F0007B0B8F2D0E94F00BCD2B19F086EE0E94F1
:101A00007808012B41F081EEDF91CF911F910F916A
:101A1000FF900C947808DF91CF911F910F91FF9068
:101A20000895809159028093DA01109259028091B1
:101A30006C02813089F0882359F08230D1F08430F3
:101A4000F9F08FE39CE90197F1F700C000000895D9
:101A500082EE0E947B0BF5CF83E00E944D0888E167
:101A60000E947B0B88E10E94780883E00E94420874
:101A7000E8CF82EE0E947B0B87E50E94F00BE1CF5E
:101A800086EE0E94F00B88E1F8CF8091D901811198
:101A900011C08091D80080618093D8008AE18A9536
:101AA000F1F700C09091D900892F817090FF82E0FA
:101AB0008093D90181E09091D901913009F080E0C3
:101AC00008951F93CF93DF93EC011AE08881882358
:101AD00009F43EC08130C9F599818A81913029F499
:101AE00022960E94F00B2196F1CF923021F422969B
:101AF0000E947B0BF8CF933021F422960E94780845
:101B0000F2CF943011F02196EECF229630E020E013
:101B1000AE014F5F5F4F8053990B8A30910550F0B3
:101B20002150310900F38FE99FE00197F1F700C0E0
:101B30000000F6CF129FB001139F700D11249C017D
:101B4000260F371F8981EA01E3CF0E94C50CCBCF56
:101B5000DF91CF911F9108956CEE7EEF90E080E0D1
:101B60000E94FE2160E082E090E00E94E02160E0BF
:101B700083E090E00E94E02110925B0210925C02F0
:101B800010925D0210925E0260E084E090E00E949C
:101B9000E02160E081E290E00E94E02160E085E0E9
:101BA00090E00E94E02160E086E090E00E94E02169
:101BB0006FEF87E090E00E94E02140E050E0BA0142
:101BC00088E090E00E94F22160E08DE090E00E94C9
:101BD000E02140E050E0BA0188E190E00E94F2216B
:101BE00060E087E190E00E94E02140E050E0BA012F
:101BF0008CE190E00E94F22160E080E290E00E949F
:101C0000E02140E050E0BA018FE090E00E94F22134
:101C100040E050E0BA0183E190E00C94F221109290
:101C20005902EAECF1E086E0DF011D928A95E9F7BE
:101C300010925802109257020C94DA061F93CF9319
:101C4000DF93CDB7DEB7AA970FB6F894DEBF0FBE0D
:101C5000CDBF80EA92E02091F100FC012193CF01F9
:101C6000F2E0883A9F07B9F78091A102833009F426
:101C70006FC0B8F4813009F446C0823009F4B0C0B6
:101C80008091E80083FF38C18091A0029091A10269
:101C90009A3008F031C1E92FF0E0EC5DFD4D0C9475
:101CA0009D218A3009F48BC08B3009F46EC08930D5
:101CB00039F78091A002813219F78091A4029091A6
:101CC000A502892BE9F68091E800877F8093E800E0
:101CD0008091E80082FF37C09091F3008091F2007C
:101CE000029729F48091F1008B7F813021F480915B
:101CF000F100809393028091E8008B778093E80055
:101D00000E944506BDCF8091A002813A09F0B8CF6C
:101D10008091E800877F8093E8008091A4029091F1
:101D2000A502892B61F468E084E992E070E00E94EA
:101D300064068091E8008B778093E800A1CF60E093
:101D400090E080E0F3CF80919E028111C1CF98CFC7
:101D50008091A002813A09F093CF8091A4029091E2
:101D6000A502892B09F08CCF8091E800877F8093B2
:101D7000E8008091E80080FFFCCF80911301809300
:101D8000F1008091E8008E77B9CF8091A002813276
:101D900009F076CF8091A4029091A502892B09F0D9
:101DA0006FCF8091E800877F8093E8000E9445060E
:101DB0008091A202809313010E940F0E61CF809147
:101DC000A002813209F05CCF8091E800877F809388
:101DD000E8000E9445068091A3028093920250CFB2
:101DE0008091A002813A09F04BCF8091E800877F73
:101DF0008093E8008091E80080FFFCCF8091920200
:101E0000BECF803899F0823809F076C08091A40264
:101E10008F70873008F070C08093E9008091EB00EC
:101E200085FB882780F91092E90006C080919C020A
:101E300090919D02911182609091E800977F90931C
:101E4000E8008093F1001092F1008091E8008E7715
:101E50009DC1882309F48AC1823009F04DC0809168
:101E6000A20281118EC18091A4028F702FEF280FE2
:101E7000263008F041C08093E9002091EB0020FF5C
:101E800080C1933031F48091EB0080628093EB004D
:101E900078C19091EB0090619093EB0021E030E0ED
:101EA00001C0220F8A95EAF72093EA001092EA0017
:101EB0008091EB008860EACF81111EC01091A202D0
:101EC0001F778091E3008078812B8093E3008091DD
:101ED000E800877F8093E8000E9445068091E80033
:101EE00080FFFCCF8091E30080688093E30082E074
:101EF000111183E080939E028091E80083FF0AC065
:101F00008091E800877F8093E8008091EB008062F9
:101F10008093EB00AA960FB6F894DEBF0FBECDBF3C
:101F2000DF91CF911F9108958058823028F78091DA
:101F3000A2029091A3028C3D23E09207A1F583E0D9
:101F40008A838AE289834FB7F894DE01139620E0F2
:101F50003EE051E2E32FF0E050935700E49120FF80
:101F600003C0E295EF703F5FEF708E2F90E0EA3094
:101F7000C0F0C7968D939D932F5F243159F74FBFC3
:101F80008091E800877F8093E8006AE270E0CE01EC
:101F900001960E9464068091E8008B778093E800A8
:101FA000ABCFC096E7CF4091A4025091A502292F54
:101FB00033272330310509F440C078F5213031054D
:101FC00009F472C082E290E0EEE6F9E022303105D9
:101FD00009F092CF2091E800277F2093E80020911C
:101FE000A6023091A7028217930708F49C0140E0F3
:101FF0002115310509F05DC041115BC08091E800F9
:1020000082FDC9CF80919E02882329F2853019F282
:102010008091E80083FFF2CFBECF2132310509F471
:102020003BC02232310509F067CF452B09F064CF60
:1020300080E490E0EEE2F9E0CDCF99278130910580
:10204000D9F0009771F082309105F1F0039709F013
:1020500053CFE2EAF9E0E4918E2F90E0E2EAF9E072
:1020600007C0EAEDF9E0E4918E2F90E0EAEDF9E0A7
:10207000009709F441CFAECFEAEBF9E0E4918E2F5F
:1020800090E0EAEBF9E0F4CFE8EAF9E0E4918E2F92
:1020900090E0E8EAF9E0ECCF452B09F02DCF89E09C
:1020A00090E0E0E8F9E096CF82E190E0E0E9F9E045
:1020B00091CF80919E02882309F46DCF853009F479
:1020C0006ACF8091E80083FD66CF8091E80082FDB1
:1020D00095CF8091E80080FF8BCF9091F3008091A5
:1020E000F2002115310519F08830910550F041E0DA
:1020F000089709F040E08091E8008E778093E8002F
:1021000077CF44914093F1003196215031090196E7
:10211000E8CF803809F0F0CE8091E800877F809387
:10212000E80080919F028093F1008FCE8111E4CE70
:102130001091A202123008F0DFCE8091E800877F74
:102140008093E80010939F020E944506112311F02E
:1021500084E005C08091E30087FDFACF81E08093A1
:102160009E0261EC81E00E943805C6CE8091A202F9
:10217000813009F0C1CE81E0933009F080E0809396
:102180009D021092E9008091E800877F8093E8002B
:102190000E944506B1CE6F927F928F929F92AF922E
:1021A000BF92CF92DF92EF92FF920F931F93CF9344
:1021B000DF93CDB7DEB76DB67EB6FC01208121116D
:1021C00014C00FB6F8947EBE0FBE6DBEDF91CF91E6
:1021D0001F910F91FF90EF90DF90CF90BF90AF9045
:1021E0009F908F907F906F9008957F0181918032B2
:1021F000E1F364E171E0C7010E94B4218C018DB666
:102200009EB601962DB73EB7281B390B0FB6F89432
:102210003EBF0FBE2DBF8DB79EB701966C01A801C2
:10222000B7010E94C321F601E00FF11F1082560191
:10223000F50181915F01811110C00E94110DC6014D
:102240000E94610D0E946F0CC701800F911F0FB695
:10225000F8949EBE0FBE8DBEB0CF90E00E94AC2120
:10226000F50131978083E4CF8F929F92AF92BF9216
:10227000CF92DF92EF92FF920F931F93CF93DF9352
:10228000CDB7DEB7E3970FB6F894DEBF0FBECDBF74
:102290008C01A9EEB1E090E080E0C12CD12C760158
:1022A0008017910784F0C114D104E10420E4F20600
:1022B000E1F48091E9019091EA0187329D4509F0AE
:1022C00007C188E2A9C0ED91FD91EE0FFF1FEE0F4F
:1022D000FF1FE050F34780809180A280B380C82820
:1022E000D928EA28FB280196DBCF6623F9F08091F4
:1022F000E5019091E601A091E701B091E801A7FF07
:1023000002C06894E7F8B6FF02C06894F6F8B1FF1F
:1023100002C06894F1F881709927AA27B0740197D8
:10232000A105B04419F46894C0F8F6F8C114D104BA
:1023300040E4E406F40609F463C0C114D10480E863
:10234000E80680E4F806F1F1C114D10420E8E206C1
:1023500022E0F206F1F020E3822E21E0922E34E119
:10236000A32E33E0B32E4BE050E0B401CE018996AA
:102370000E94A32189A59AA5ABA5BCA58C159D0596
:10238000AE05BF0509F04BC0CE018D960E94610DD0
:1023900002C00E94A60CC8010E941B0B81E0E396BC
:1023A0000FB6F894DEBF0FBECDBFDF91CF911F9166
:1023B0000F91FF90EF90DF90CF90BF90AF909F90E4
:1023C0008F9008958091EB019091EC0186324DE55C
:1023D000940749F02091E9013091EA0126323D4508
:1023E00029F4892B19F40E94880CD5CF80EE0E9425
:1023F0007B0B89E10E94F00B80EE0E947808CBCF26
:1024000086E191E00E94CB108BE191E00E94CB101D
:1024100088E20E94F00B82E50E94F00BBCCF8BE0BB
:10242000880E911CA814B90409F09DCF88EC882E61
:1024300080E0982E9EE7A92E91E0B92E4AE150E067
:10244000B401CE0101960E94A32189819A81AB81BA
:10245000BC818C159D05AE05BF0519F4CE0105960E
:1024600095CF2AE1820E911CA814B90439F74EE0E9
:1024700050E06CEA70E0CE014B960E94A3218B8D58
:102480009C8DAD8DBE8DC816D906EA06FB0669F493
:10249000CE014F960E94CB1040E1C416D10443E018
:1024A000E406F10409F477CF0CCF4EE050E06AEB7C
:1024B00070E0CE014B960E94A3218B8D9C8DAD8D3B
:1024C000BE8DC816D906EA06FB0611F380E067CF79
:1024D00061110DCF40CFCF93DF93C091FD01D0E0CC
:1024E000209731F481E090E0DF91CF910C941B0BA9
:1024F00061E0CE010E943411811108C060E0CE017C
:102500000E943411811102C02197EACFDF91CF914F
:102510000895EF92FF920F931F93CF93DF93E0E71D
:10252000F2E060EA71E0D0E001E010E07B0150E011
:1025300040E030E0D7012D917D012F3FB9F0822F8F
:1025400082958F7090E0DC0190968C9190E02F70D6
:1025500002C0959587952A95E2F780FD4DC0C80188
:10256000042E01C0880F0A94EAF7382B4F5F5F4FA3
:1025700045305105F9F68081831709F43FC0308357
:1025800081E0D82B31966B5F7F4FB1E0643B7B07D6
:1025900069F6C0917902DD2399F181E08093D3013E
:1025A0000E94C8069093D2018093D1012091D1015D
:1025B0003091D2014FB7F89480915F029091600200
:1025C000A0916102B09162024FBF821B930B0697EC
:1025D000D8F0EC2FF0E0E158FD4F8091700280833D
:1025E0008091710281838091720282838091730253
:1025F00083831092D30108C080E0B7CF80E0C1CFC1
:102600008091D3018111D2CF0E94450D882379F1A9
:10261000C09178020E945021009779F08091D801F2
:102620008F5F8093D8018630C0F48D2FDF91CF91DA
:102630001F910F91FF90EF900895EC2FF0E0E1587B
:10264000FD4FDC01AC52BE4F2C912193019684309A
:102650009105B9F71092D801E8CFE0917802F0E047
:10266000E158FD4F1082118212821382DECFE09179
:102670007902F0E0E158FD4F90E080E02191DC012B
:10268000AC52BE4F2C93019684309105B9F7CDCF53
:102690002F923F924F925F926F927F928F929F9272
:1026A000AF92BF92CF92DF92EF92FF920F931F9360
:1026B000CF93DF9300D000D00F92CDB7DEB77C016F
:1026C000DC0113968D919C911497892B41F01C91FC
:1026D0001196DC90812F8D218F3F09F0D2C60F908B
:1026E0000F900F900F900F90DF91CF911F910F914E
:1026F000FF90EF90DF90CF90BF90AF909F908F9022
:102700007F906F905F904F903F902F9008950E9420
:10271000AB0A082F682F89819A810E945607E12F02
:10272000F0E0B5E0DB9EE00DF11D112428E2029FF0
:10273000E00DF11D1124EE0FFF1FE252FC4F059139
:102740001491D70112962C910930BDE51B0709F4AD
:1027500060C0A8F50830FDE51F0709F43EC0809170
:10276000FE018111B0C08091DD019091DE01222334
:1027700009F48DC02091670230916802009709F03A
:1027800058C002171307B1F08091690290916A0254
:102790000817190779F08091630290916402081775
:1027A000190741F080916502909166020817190798
:1027B00009F071C01093DE010093DD011BC00A30E7
:1027C0003DE5130771F10B304DE5140741F680E14B
:1027D000222361F10E94E9070DC0222359F061E034
:1027E00083E090E00E94E02161E070E080E090E012
:1027F0000E940A0880915602877009F470CFD701B1
:1028000012968C91882309F46ACF82E00E94D10746
:1028100066CF82E0222339F00E94E9070E949207E6
:10282000E9CF83E0F7CF0E94AE07F8CF0E94AE0752
:10283000E1CF4091690250916A020217130719F41F
:102840008417950731F00417150751F48217930781
:1028500039F40E94A60C1092DE011092DD01CACF5D
:1028600020916302309164024091650250916602AA
:102870000217130719F48417950731F00417150789
:1028800041F42817390729F40E94880CE4CF0097F7
:1028900011F00E94F00B1092DE011092DD01F701A1
:1028A0008281882309F454C0C801815E9C45059744
:1028B00008F04EC06FE1600F60936C028CE090E016
:1028C0000E94E02145C0011559E6150708F0BAC07D
:1028D000013088E6180768F4011592E61907D0F46C
:1028E0000130A1E61A0728F4C801805E9109089713
:1028F000F8F48091DF019091E001222309F4BDC03A
:1029000001969093E0018093DF0180916B020E9419
:10291000AE07C5CF0130B2E61B0750F0C8018150A9
:1029200094460115E3E61E0720F38F3F910508F357
:10293000680188E0C81A8DE5D80A2111ABC0109350
:10294000E2010093E101B0E2CB16D10408F497C193
:1029500017FFF2C1D70112968C91882329F10E94AA
:10296000110D5801E894B7F87CE0C72ED12C9501E1
:102970000C2C02C0369527950A94E2F72F7087E257
:1029800090E031F0822F90E02A3008F0D3C14D96CC
:102990000E94F00BB4E0CB1AD108ECEFCE16EFEFAB
:1029A000DE0629F70E946F0CF7018281882309F463
:1029B0007BC51092FF010230FCE51F0708F4CFC26F
:1029C00006312CE5120738F098012A5F3C45293082
:1029D000310508F0C4C20E943C0B90937B028093A7
:1029E0007A0200313CE5130709F488C208F01BC2E3
:1029F00008305CE5150709F477C208F0EAC1043035
:102A00009CE5190709F468C208F0D0C10230BCE5A2
:102A10001B0709F45BC280917A02826003301C4577
:102A200009F457C260917A0210917B0284E090E031
:102A30000E94E021612F81E290E00E94E0210E944B
:102A40000F0ED8CE0115F3E71F0748F4C8018150D7
:102A50009147013032E7130708F467CF4ACF0130BE
:102A600044E7140708F464CF011555E7150708F487
:102A700040CFC8018150984758CF01979093E0010B
:102A80008093DF01892B09F063CF80916B020E9454
:102A9000E90705CF90E2C916D10408F005CFD701A8
:102AA00013968D919C912091E3013091E401FC01FA
:102AB000E21BF30B1601220C331C220C331CE43BEB
:102AC000F10508F007C12091E1013091E201021700
:102AD000130709F0FFC04090E5015090E6016090B7
:102AE000E7017090E801F101E05EFE4F8081918185
:102AF000A281B381482A592A6A2A7B2A19821A821A
:102B00001B821C823AEBA32E33E0B32E4EED842EB3
:102B100043E0942E44E050E0B501CE0101960E94BE
:102B2000A32189819A81AB81BC81481659066A0626
:102B30007B0609F098C088248394912C2AE0722E99
:102B4000D7011196EC911197F0E0E158FD4F80818B
:102B500090E02C91F40102C0EE0FFF1F2A95E2F7DE
:102B60009F018E239323892B61F41093E20100933C
:102B7000E10113968D919C919093E4018093E30180
:102B80008ECE8091FD01E82FF0E0EE0FFF1FE751A0
:102B9000FE4F118300838F5F8093FD010E946B12B3
:102BA00084EBA82E83E0B82EF5018491882309F4E4
:102BB00057C0813009F050C06501FFEFCF1ADF0A1E
:102BC000F6018491813069F46501F2E0CF0ED11CE9
:102BD000F60184910E94F00B5601EFEFAE1ABE0A87
:102BE000E3CF823049F46501F2E0CF0ED11CF6014B
:102BF00084910E947B0BF0CF833049F46501F2E0B1
:102C0000CF0ED11CF60184910E947808E5CF843064
:102C100019F76501F2E0CF0ED11CF601249190E086
:102C200080E0F60131962053330B2A30310548F00D
:102C3000019790F2AFE9BFE01197F1F700C00000F3
:102C4000F7CF789EA001799E500D1124C901840F01
:102C5000951F24916F01E5CF0E94C50C6501BCCF83
:102C60000E9489126DCFF4E0AF0EB11C8A149B0450
:102C700009F050CFD70112968C9181112FC0F60127
:102C8000EE0FFF1FEE0FFF1FE05EFE4F8081918170
:102C9000A281B38180959095A095B0954091E50172
:102CA0005091E6016091E7017091E801842395233A
:102CB000A623B7238093E5019093E601A093E70153
:102CC000B093E8018091FD01882309F493CD0E941F
:102CD0006B1290CD9093E4018093E3018091FD010C
:102CE000E82FF0E0EE0FFF1FE751FE4F1183008346
:102CF0008F5F8093FD01F101E05EFE4F4091E501A1
:102D00005091E6016091E7017091E8010081118125
:102D100022813381402B512B622B732B4093E50191
:102D20005093E6016093E7017093E8018A3008F45C
:102D300061CDCDCF06972CCE033FFCE51F0739F1BF
:102D400088F4083D3CE51307F1F0093D4CE5140714
:102D500051F1073D5CE5150709F026CE26E241EE6C
:102D600061EE0DC0053F8CE51807C9F0A0F027E221
:102D700045EE66EE063FACE51A0709F015CEC70131
:102D80000E94030C37CD27E245EE65EEF8CF26E230
:102D900041EE60EEF4CF27E245EE64EEF0CF26E29E
:102DA00041EE62EEECCF28E241E0EFCF80917A0273
:102DB00080610630FCE51F0709F48BC080917A0220
:102DC000886007301C4508F484C080917A028062D4
:102DD00080C080917A028D7F0C303CE5130709F4A6
:102DE00078C070F480917A028C600A305CE5150737
:102DF00009F46FC008F47CC080917A028E7F69C0AC
:102E000080917A02877F0E309CE5190709F461C032
:102E100080917A028B7F0F301C4508F45AC0809154
:102E20007A028F7E56C00B3FBCE51B0709F458C0E1
:102E300030F50331FCE51F0709F468C078F401316F
:102E40003CE5130709F45EC002311C4509F0EACDE8
:102E50000E940F0E80917A028F773BC005315CE5AE
:102E6000150709F45BC008F46FC080917B02816094
:102E70000A3F1C4509F0D6CD80937B02D3CD0F3F8E
:102E8000ACE51A0709F446C088F480917B028D7F77
:102E90000D3FECE51E0781F380917B028E7F0E3F94
:102EA0001C4550F380917B028360E6CF01302DE515
:102EB000120709F452C0F0F160E002301D4509F03C
:102EC000B1CD8EE090E00E94E021ACCD80917A02FD
:102ED000816080937A02A6CD80917A028460F9CFD6
:102EE00080917B028260C8CF80917A028064F1CFAA
:102EF0000E940F0E80917A028068EBCF80917A0257
:102F00008F7DE7CF80917A028F7BE3CF80917A0229
:102F1000837FDFCF80917B028C7FAECF80917A025E
:102F200082FB992790F921E0922790FB82F990FB90
:102F300083F9CFCF80917B02982F909591708E7FEF
:102F4000892B90FB81F998CF0E940F0E90917A0205
:102F5000892F97FB87F98058BCCF61E0B2CF06314B
:102F60005CE5150709F0ABC2809159028A7A91E0BD
:102F700009F490E090930002811106C089E20E945A
:102F800014070E94DA0636CC85E3F9CF85E394C2B4
:102F90000E940F0E8FEF94E3ACE081509040A04070
:102FA000E1F700C0000081E08093E00080E28093C0
:102FB000D8001092C900EFE1FEE43197F1F700C0AC
:102FC000000087E090EBDC018093AE029093AF02AB
:102FD000A093B002B093B10288E19CE00FB6F894E0
:102FE000A895809360000FBE90936000FFCF0E9471
:102FF000AC0D00CCC8010E942D07D82E77C2E12F5E
:10300000EF70BE2E107F19F0B29440EFB422AA20C8
:10301000C9F0BB2069F080E2800F883010F0811089
:103020000BC080915902B82AB09259020E94DA0668
:10303000802F0E947B0B18C080915802B82AB09252
:103040005802F4CF802F0E947808BB2069F0B0941A
:10305000005E083010F0811045C080915902B822FE
:10306000B09259020E94DA06AC2DA850BB0B1497FF
:1030700010F40E946C08DD20A9F08091560280FDBA
:1030800011C0F70112828595859585950E94E90703
:10309000C7010E94481380915602859585958595B4
:1030A0000E94AE0785E0F701DE01119601900D92B6
:1030B0008A95E1F789819A810E942D079A81E98199
:1030C000F0E025E0929FE00DF11D112438E2839F8E
:1030D000E00DF11D1124EE0FFF1FE252FC4F859110
:1030E0009491FDCA80915802B822B0925802BACF8A
:1030F000F12FFF709F2E107F103219F0929430EF55
:103100009322882089F021E0821679F1AA20D1F15A
:10311000BB2089F1D70115968C91159780FF88CF38
:103120008F7015968C9327C0AA2091F090915A0227
:10313000892D892BB11003C00E94620895CF31E020
:10314000B312FACF981709F48FCF80935A028CCF1D
:10315000B11006C00E94D406892D0E94570884CF62
:1031600041E0B41609F480CFF5CFAA2031F055E044
:103170005B1508F479CF892DDFCF84E08B1508F437
:1031800073CFEACFBB2041F3B9E38B1209C0EFEF55
:10319000F7EE23E0E150F0402040E1F700C00000EE
:1031A000802F0E94780860CF812F837009F066C05D
:1031B000A1105ACF802F829586958770880F880F2F
:1031C000602F6F70862E912CB12CA12C082E04C07C
:1031D000880C991CAA1CBB1C0A94D2F740E050E052
:1031E000BA0104FF0FC04FE050E060E070E004C09F
:1031F000440F551F661F771F8A95D2F7409550954B
:1032000060957095812F869586958370823019F12F
:10321000D8F400915B0210915C0220915D02309124
:103220005E02813069F0482959296A297B29CB013E
:10323000BA0160237123822393230E940A0814CFCA
:10324000802A912AA22AB32ACB01BA0168297929B6
:103250008A299B29F2CF482959296A297B2900917B
:103260005B0210915C0220915D0230915E02CB0105
:10327000BA016027712782279327DFCF8695AA207E
:1032800011F0812F8170882309F4EECE802F829572
:1032900086958770880F880F602F6F70862E912C0F
:1032A000B12CA12C082E04C0880C991CAA1CBB1C94
:1032B0000A94D2F740E050E0BA0104FF0FC04FE09B
:1032C00050E060E070E004C0440F551F661F771F98
:1032D0008A95D2F74095509560957095812F869587
:1032E00086958370823019F1D8F40091A80210916C
:1032F000A9022091AA023091AB02813069F04829DD
:1033000059296A297B29CB01BA01602371238223C1
:1033100093230E948407A8CE802A912AA22AB32A46
:10332000CB01BA01682979298A299B29F2CF48293A
:1033300059296A297B290091A8021091A90220919C
:10334000AA023091AB02CB01BA0160277127822714
:103350009327DFCF1F70AA2029F0812F0E94E90751
:10336000802FEACE802F0E945708812F0E94AE073F
:103370007BCE802F32EF831609F450C0381578F0D9
:1033800040EF841619F151EF851609F43FC0AA20C9
:1033900009F467C0B1104CCE812F8F713CC093EF00
:1033A000891609F440C0A4EF8A12F1CFAA2009F4CB
:1033B0004DC01F71812F0E94E907F8E01F9FC001D7
:1033C0001124836080935602812F25C0AA20C9F062
:1033D000B4E0BB1508F448CE1F7161E070E080E0F6
:1033E00090E004C0660F771F881F991F1A95D2F7C7
:1033F0000091A8021091A9022091AA023091AB027B
:10340000A4CFE5E0EB1508F42FCEE6CF812F8F7126
:10341000AA2009F4ABCF0E94E90726CE812F8F7135
:10342000AA20C9F3A3CF60E070E0CB01AA2009F481
:1034300070CF1F7161E070E080E090E004C0660F23
:10344000771F881F991F1A95D2F763CF81E00E94DA
:10345000D10721E02B1508F007CE82E00E94D107AA
:1034600003CEBB2059F0893309F09ACE3FEF47EEE7
:1034700053E0315040405040E1F790CE812F8F71A2
:1034800075CF85E0F701DE01119601900D928A95C6
:10349000E1F7D70112962C9189819A81211137C9C0
:1034A0000E942D07082F3BC906311C4589F48091E5
:1034B000000281116BCD89E20E94070762CD0115E0
:1034C000ECE51E0709F464CD0E3D1C4509F48FCDD3
:1034D000F70100811181882309F48CCDC8010E9475
:1034E000AB0AD82E682FC8010E945607B8018D2D4F
:1034F0000E9433098C01882ED7011596BC90159730
:10350000B2946FE0B6221296AC90A11010925802BD
:1035100080915602877099F0AA2089F0812F807FD0
:10352000803421F080E2800F883048F082E00E94F1
:10353000D107809156028770DD24D3948111D12C5C
:10354000C12EC2945FE0C522BBE0BC1508F48CCD4F
:10355000EC2DF0E0E25DFD4D0C949D211F93CF9387
:10356000DF9380910A02807FA9F48091070288236B
:1035700089F080913C02D0910B026091050270911C
:103580000602A0910802B0910902C62FC72316E0D7
:10359000D81304C0DF91CF911F91089590E0109748
:1035A00011F0CF3F19F401968770F2CF189F900168
:1035B000199F300D1124F901E45FFD4F418147133C
:1035C000F2CF40814613EFCF42814111ECCF4381CE
:1035D00054814A1B5B0B483C510528F780910A0235
:1035E0008F70806180930A02F901EF5EFD4F808148
:1035F0008F708061808385E092E00E944813DF91A4
:10360000CF911F910C9438088F929F92AF92BF92E6
:10361000CF92DF92EF92FF920F931F93CF93DF939E
:10362000CDB7DEB761970FB6F894DEBF0FBECDBF42
:103630008C0185E0F801DE011D9601900D928A95BE
:10364000E1F7D801EC901196DC9011971296CC908E
:10365000129785E0882E82E0982E409108025091C2
:1036600009024115510509F443C1909105022091C9
:103670000602892F82238F3F09F43AC11396AD9039
:10368000BC901497F0900702F501E41BF50BFF20A6
:1036900009F4FFC080910A02382F307FE83CF10521
:1036A00008F0C8C0311185C0FC2C2D1124C09E111A
:1036B00022C0C11020C08F70806180930A02C401B3
:1036C0000E94481380910A02D80115968C938F2D81
:1036D00061960FB6F894DEBF0FBECDBFDF91CF91DC
:1036E0001F910F91FF90EF90DF90CF90BF90AF9020
:1036F0009F908F900895A114B10429F08E2D8D21F3
:103700008F3F09F016C180E080FF14C04C2D6D2D55
:103710008E2D0E941808882369F085E092E00E94AF
:10372000481386E0E5E0F2E0DF011D928A95E9F7B3
:10373000F12CCDCFAB2829F08E2D8D218F3F09F0B4
:10374000F5C080E0B82FB170AB2E80FF29C04C2DA2
:103750006D2D8E2D0E941808B82E811121C0ED8686
:10376000DE868D859E850E94ED0A292F22952F7079
:10377000223050F0243078F49F7051F0F801958198
:10378000907F31F4FB2CA3CF9F7011F08823D1F3ED
:10379000805E8830B8F3C8010E944813BA2CF2CF7B
:1037A000CC2009F494CF80910A02816080930A02B0
:1037B000BFCF2D1112C09E1110C0C1100EC01596A2
:1037C0008C93C8010E94481386E0F801A5E0B2E09E
:1037D00001900D928A95E1F77ACFED86DE868D8590
:1037E0009E850E94F70A882309F1CC20F9F0809188
:1037F0000A02803270F0209105023091060238876B
:103800002F831986BB86AA868C87CE0107960E94D5
:10381000481386E0F801A5E0B2E001900D928A9588
:10382000E1F70E94AE1AFF24F39451CFC8010E9421
:103830004813F9CF332309F470CF2D110FC09E1117
:103840000DC0C1100BC0F8018583C8010E94481348
:1038500086E0D4011D928A95E9F739CFED86DE86A0
:103860008D859E850E94F70A882301F3CC20F1F212
:1038700080910A02803268F220910502309106029E
:103880003A8329831B82BD82AC828E83CE0101964E
:10389000BECFE83CF105E0F6FC2CCC2039F22D112E
:1038A00016C09E1114C080910A0280FD8DCF982F02
:1038B000907F09F489CFF8018583903F09F481CF87
:1038C000982F907F905F8F70892B85837ACFED86BC
:1038D000DE868D859E850E94F70A81119ACF8091A0
:1038E0000A02816080930A02C8010E944813EFCE49
:1038F000CC2009F49BCFED86DE868D859E850E94C7
:10390000F70AF82E882309F491CF86E0F801A5E0A4
:10391000B2E001900D928A95E1F7809105029091B5
:1039200006020E94ED0A0E94AE1AD1CE81E08C25DB
:1039300009CF81E08C25E8CE1F93CF93DF93CDB7DD
:10394000DEB767970FB6F894DEBF0FBECDBF4B8BC7
:103950005C8B6D8B7E8B8F8B1A8A198A85E0FE01BA
:103960007396DE011D9601900D928A95E1F786E02F
:10397000FE013D96DE01179601900D928A95E1F7C2
:10398000CE0107960E94041B882389F016E08091DF
:103990003C0290910B02891349C067960FB6F894C8
:1039A000DEBF0FBECDBFDF91CF911F91089586E09E
:1039B000FE013796DE01119601900D928A95E1F78E
:1039C0008A859B85892B11F38F81988589238F3F69
:1039D000E9F220910B0230E0C90101968770992726
:1039E00040913C024817190671F40E940F0E109284
:1039F0000B0210923C0286E0E5E0F2E0DF011D924E
:103A00008A95E9F7C3CF96E0929FD001939FB00DBE
:103A10001124A45FBD4FFE01319601900D929A953D
:103A2000E1F780930B020E943808B0CF819FC0015C
:103A30001124845F9D4F0E94041B882309F4ADCF9D
:103A400080913C0290E001968770992780933C0218
:103A50009ECF1F920F920FB60F9211242F933F9378
:103A60004F935F936F937F938F939F93AF93BF9386
:103A7000CF93DF93EF93FF93D091E900DF708091B4
:103A8000EC00C82FC17080FDC0E81092E900809161
:103A9000F000877F8093F00078940E941E0E1092B1
:103AA000E9008091F00088608093F000CD2BCF700A
:103AB000C093E900FF91EF91DF91CF91BF91AF915A
:103AC0009F918F917F916F915F914F913F912F9136
:103AD0000F900FBE0F901F9018951F920F920FB668
:103AE0000F9211242F933F934F935F936F937F9384
:103AF0008F939F93AF93BF93EF93FF938091E100D8
:103B000082FF09C08091E20082FF05C08091E10040
:103B10008B7F8093E1008091DA0080FF24C0809148
:103B2000D80080FF20C08091DA008E7F8093DA0079
:103B30008091D90080FF9EC080E189BD82E189BD6E
:103B400009B400FEFDCF81E080939E028091910236
:103B5000811109C00E946A050E9489058091E200D6
:103B600084608093E2008091E10080FF17C0809123
:103B7000E20080FF13C08091E2008E7F8093E2001C
:103B80008091E20080618093E2008091D8008062A1
:103B90008093D80019BC85E080939E028091E1005B
:103BA00084FF2DC08091E20084FF29C080E189BD9F
:103BB00082E189BD89B5982F917080FFFBCF8091FC
:103BC000D8008F7D8093D8008091E1008F7E809314
:103BD000E1008091E2008F7E8093E2008091E2001C
:103BE00081608093E20080919F02882309F448C09D
:103BF00084E080939E020E940F0E0E946C088091C8
:103C0000E10083FF26C08091E20083FF22C0809103
:103C1000E100877F8093E10082E080939E02109212
:103C20009F028091E1008E7F8093E1008091E2000D
:103C30008E7F8093E2008091E20080618093E200B9
:103C400060E080E00E9438058091F00088608093F9
:103C5000F000FF91EF91BF91AF919F918F917F9174
:103C60006F915F914F913F912F910F900FBE0F90E9
:103C70001F90189519BC10929E021092910273CF5A
:103C80008091E30087FD93E090939E02B4CFCDB77F
:103C9000DEB72A970FB6F894DEBF0FBECDBF84B74C
:103CA000877F84BF0FB6F894A895809160008861E3
:103CB00080936000109260000FBE80E890E00FB625
:103CC000F89480936100909361000FBE85B780687F
:103CD00085BF85B7806885BF0E946A050E948905F7
:103CE0008091E20084608093E200789480919E024B
:103CF0008823A1F01091E9001F709091EC00892FAA
:103D0000817090FD80E8182B1092E9008091E80006
:103D100083FD0E941E0E1F701093E90082E084BD97
:103D200093E095BD9AEF97BD80936E000E94450D7C
:103D300091E08927809308010E94450D882331F086
:103D400061E070E080E091E00E94AF208091080186
:103D50008091080194E0811190E09093790284E0D1
:103D6000891B8093780220EA31E061E070E0D9019C
:103D700050E040E08D918F3F91F0E82FE295EF7099
:103D8000F0E0F1A08F708B0101C0000F8A95EAF777
:103D9000902F90959F2191A382A1802B82A34F5FAA
:103DA0005F4F4530510531F72B5F3F4F81E0283C95
:103DB0003807E9F6E0E7F2E088E792E0AFE7B2E043
:103DC00011921D928E179F07D9F790E080E00E9414
:103DD000DA218C3E9E4F11F00E94AC0D8CE090E0F9
:103DE0000E94D22190E0B0E0A0E080936C0290931A
:103DF0006D02A0936E02B0936F0281E080936B021C
:103E000084E190E090936802809367022DE130E0B6
:103E100030936A0220936902909364028093630254
:103E200084E090E0909366028093650280936C0238
:103E300064E08CE090E00E94E0210E94450D811139
:103E400006C061E070E080E091E00E94B62090E062
:103E500080E00E94DA218C3E9E4F11F00E94AC0D52
:103E600082E090E00E94D221809388020E943C0B65
:103E700090937B0280937A0283E090E00E94D221AB
:103E8000682F70E090E080E00E940A0889E091E0ED
:103E900090937D0280937C02EE24EA9487E8C82EFA
:103EA00082E0D82E90E1892E22E1922E38E1A32ED5
:103EB000B12C40E4742E80919E02853009F441C0FB
:103EC0000E9489120E94450D882309F47AC0E9E80E
:103ED000F2E0AFE7B2E010E000E0302F8D91919179
:103EE000981709F468C0292F282790E0FF24F3943D
:103EF0004F2D422309F45AC099833A838F2191E0D0
:103F000009F490E09B830E94C8068160782F9D830E
:103F10008C8349815A816B818D810E949C1CF801A0
:103F2000E757FD4F8081F826F0820E946C0890913F
:103F30008702891709F4BFCF0E946C08809387021B
:103F4000BACF80919E02843009F110927E020FB6A2
:103F5000F894A895A09260000FBE7092600083B79D
:103F6000817F846083BF83B7816083BF78948895A5
:103F700083B78E7F83BF0FB6F894A89580916000B9
:103F8000886180936000109260000FBE80919D0256
:103F9000882309F490CF0E948912EFE7F2E0819123
:103FA00081111FC0CE16DF06D1F785CF9F5FFF0CB2
:103FB000953009F09DCF0F5F1F4F0830110509F0B4
:103FC0008CCFEE82EF8218860E94C8068160782F1F
:103FD0009A8789874E815F8168858A850E949C1CAB
:103FE000A4CF89BC99BC09B400FEFDCF8091D80054
:103FF0008F7D8093D8008091E00082608093E00004
:104000008091E00081FDFCCF56CF78941F921FB6BF
:104010001F9211248F939F93AF93BF9380915F0260
:1040200090916002A0916102B09162020196A11D7F
:10403000B11D80935F0290936002A0936102B093E0
:104040006202BF91AF919F918F911F901FBE1F90F1
:1040500018951F921FB61F9211248F939F93AF93B1
:10406000BF9380917E02811113C080915F02909175
:104070006002A0916102B09162024196A11DB11D42
:1040800080935F0290936002A0936102B0936202FA
:10409000BF91AF919F918F911F901FBE1F90189558
:1040A0008EE1489B02C08150E1F7489BFECF089506
:1040B000589880E28A95F1F7589A0895FC013BE000
:1040C0003A95F1F798E020E080E031E040E14A9550
:1040D000F1F7880F489B02C08160232742E04A9590
:1040E000F1F7000040E14A95F1F7915079F790E13E
:1040F0009A95F1F799B132E03A95F1F7000040E175
:104100004A95F1F7917092272081920F908308953C
:10411000EF92FF920F931F93CF93DF930F92CDB740
:10412000DEB719828C017C01E60EF11C0E151F050D
:1041300061F481E09981911180E00F90DF91CF913E
:104140001F910F91FF90EF9008950E945020CE0193
:1041500001960E945E20F80181938F01E7CF909332
:10416000AD028093AC02509A589A08959093AD0294
:104170008093AC025098589AE89AE9E6F0E0808182
:104180008C7F808308956150770B91E001C0990F77
:104190006A95EAF720E031E0911108C0222391F0FE
:1041A000589A80E28A95F1F758980895492F482344
:1041B00039F0589A232740E24A95F1F79695ECCFCB
:1041C0005898F9CF5898EDCFFF920F931F93CF9344
:1041D000DF93EC018C01060F111DC017D10731F4DC
:1041E000DF91CF911F910F91FF900895F9900E9458
:1041F000582068E08F2D0E94C320EFCF1F920F92AE
:104200000FB60F9211242F933F934F935F936F93A9
:104210007F938F939F93AF93BF93CF93DF93EF934E
:10422000FF935898509AC091AC02D091AD026D8125
:10423000662321F08E819F810E94E4200E945820F5
:1042400080E18A95F1F758985098589A80E18A95BC
:10425000F1F76A81662309F18B819C810E94882095
:10426000E881F981882311F088E001C082E0808331
:104270000E945020FF91EF91DF91CF91BF91AF91BC
:104280009F918F917F916F915F914F913F912F916E
:104290000F900FBE0F901F901895E881F981E4CF21
:1042A000CF93DF93C091AC02D091AD02F894509AB5
:1042B000589885E08A95F1F700005098589A80E266
:1042C0008A95F1F7489B0CC0509A589AE881F98179
:1042D00081E08083789481E090E0DF91CF91089530
:1042E0006D81662381F08E819F810E9488208111DB
:1042F0000AC0509A589AE881F98182E080837894C4
:1043000082E090E0EACF0E94502080E28A95F1F7A7
:104310005898509A80E18A95F1F76A81662321F0D6
:104320008B819C810E94E4200E945820E881F981C1
:104330001082789490E080E0D0CFEE0FFF1F0590C0
:10434000F491E02D0994FB01DC0102C005900D926F
:1043500041505040D8F708959111089581548A51E1
:1043600008F4805E855A0895DC015D91552331F093
:10437000FB01019005160110E1F7B9F780959095C2
:104380008A0F9B1F0895FB01DC014150504048F00B
:1043900001900D920020C9F701C01D92415050407C
:1043A000E0F70895F999FECF92BD81BDF89A99275B
:1043B00080B50895A8E1B0E042E050E00C940622F8
:1043C000262FF999FECF92BD81BDF89A019700B4CE
:1043D000021639F01FBA20BD0FB6F894FA9AF99A6E
:1043E0000FBE08950396272F0E94E1210E94E0212D
:1043F000252F0E94E121242F0C94E1210196272FE3
:104400000E94E1210C94E021DC01CB01FC01F9992F
:10441000FECF06C0F2BDE1BDF89A319600B40D9210
:1044200041505040B8F70895F894FFCF060B060BA3
:104430000F0B0F0B110B0F0B0F0B0F0B060B060BBC
:10444000160B0F0B0F0B160B010F290F7C0F290FEB
:104450007C0F5C0F940F7C0F89109610FF17FF17CD
:10446000781878183418341834183418D418AA194D
:04447000B919B919A4
:10447400D00100D00104D40101C5064A0BC406C210
:1044840006C306012000333030430033303044008B
:104494000100000002000000040000000800000009
:1044A4001000000020000000400000008000000018
:1044B40000010000000200000004000000080000E9
:1044C40000100000002000000040000000800000F8
:1044D40000000100000002000000040000000800C9
:1044E40000001000000020000000400000008000D8
:1044F40000000001000000020000000400000008A9
:1045040000000010000000200000004000000040F7
:10451400F1C6303233F5F0313792F6F767959335BB
:104524006636FFFF000000000000000000000000ED
:0845340000000000000000007F
:00000001FF
